{
  "contractName": "KittuTokenSale",
  "abi": [
    {
      "inputs": [
        {
          "internalType": "uint256",
          "name": "_tokenPrice",
          "type": "uint256"
        },
        {
          "internalType": "contract KittuToken",
          "name": "_tokenContract",
          "type": "address"
        }
      ],
      "stateMutability": "nonpayable",
      "type": "constructor"
    },
    {
      "anonymous": false,
      "inputs": [
        {
          "indexed": false,
          "internalType": "address",
          "name": "_buyer",
          "type": "address"
        },
        {
          "indexed": false,
          "internalType": "uint256",
          "name": "_amount",
          "type": "uint256"
        }
      ],
      "name": "Sell",
      "type": "event"
    },
    {
      "inputs": [],
      "name": "tokenContract",
      "outputs": [
        {
          "internalType": "contract KittuToken",
          "name": "",
          "type": "address"
        }
      ],
      "stateMutability": "view",
      "type": "function",
      "constant": true
    },
    {
      "inputs": [],
      "name": "tokenPrice",
      "outputs": [
        {
          "internalType": "uint256",
          "name": "",
          "type": "uint256"
        }
      ],
      "stateMutability": "view",
      "type": "function",
      "constant": true
    },
    {
      "inputs": [],
      "name": "tokensSold",
      "outputs": [
        {
          "internalType": "uint256",
          "name": "",
          "type": "uint256"
        }
      ],
      "stateMutability": "view",
      "type": "function",
      "constant": true
    },
    {
      "inputs": [
        {
          "internalType": "uint256",
          "name": "_numberOfTokens",
          "type": "uint256"
        }
      ],
      "name": "buyTokens",
      "outputs": [],
      "stateMutability": "payable",
      "type": "function",
      "payable": true
    },
    {
      "inputs": [],
      "name": "endSale",
      "outputs": [],
      "stateMutability": "nonpayable",
      "type": "function"
    }
  ],
  "bytecode": "0x608060405234801561001057600080fd5b50604051610ab6380380610ab68339818101604052810190610032919061016c565b336000806101000a81548173ffffffffffffffffffffffffffffffffffffffff021916908373ffffffffffffffffffffffffffffffffffffffff1602179055508160028190555080600160006101000a81548173ffffffffffffffffffffffffffffffffffffffff021916908373ffffffffffffffffffffffffffffffffffffffff16021790555050506101ac565b600080fd5b6000819050919050565b6100d9816100c6565b81146100e457600080fd5b50565b6000815190506100f6816100d0565b92915050565b600073ffffffffffffffffffffffffffffffffffffffff82169050919050565b6000610127826100fc565b9050919050565b60006101398261011c565b9050919050565b6101498161012e565b811461015457600080fd5b50565b60008151905061016681610140565b92915050565b60008060408385031215610183576101826100c1565b5b6000610191858286016100e7565b92505060206101a285828601610157565b9150509250929050565b6108fb806101bb6000396000f3fe60806040526004361061004a5760003560e01c80633610724e1461004f578063380d831b1461006b578063518ab2a81461008257806355a373d6146100ad5780637ff9b596146100d8575b600080fd5b61006960048036038101906100649190610589565b610103565b005b34801561007757600080fd5b506100806102c0565b005b34801561008e57600080fd5b506100976104e5565b6040516100a491906105c5565b60405180910390f35b3480156100b957600080fd5b506100c26104eb565b6040516100cf919061065f565b60405180910390f35b3480156100e457600080fd5b506100ed610511565b6040516100fa91906105c5565b60405180910390f35b61010f81600254610517565b341461011a57600080fd5b80600160009054906101000a900473ffffffffffffffffffffffffffffffffffffffff1673ffffffffffffffffffffffffffffffffffffffff166370a08231306040518263ffffffff1660e01b8152600401610176919061069b565b602060405180830381865afa158015610193573d6000803e3d6000fd5b505050506040513d601f19601f820116820180604052508101906101b791906106cb565b10156101c257600080fd5b600160009054906101000a900473ffffffffffffffffffffffffffffffffffffffff1673ffffffffffffffffffffffffffffffffffffffff1663a9059cbb33836040518363ffffffff1660e01b815260040161021f9291906106f8565b6020604051808303816000875af115801561023e573d6000803e3d6000fd5b505050506040513d601f19601f820116820180604052508101906102629190610759565b61026b57600080fd5b806003600082825461027d91906107b5565b925050819055507f5e5e995ce3133561afceaa51a9a154d5db228cd7525d34df5185582c18d3df0933826040516102b59291906106f8565b60405180910390a150565b60008054906101000a900473ffffffffffffffffffffffffffffffffffffffff1673ffffffffffffffffffffffffffffffffffffffff163373ffffffffffffffffffffffffffffffffffffffff161461031857600080fd5b600160009054906101000a900473ffffffffffffffffffffffffffffffffffffffff1673ffffffffffffffffffffffffffffffffffffffff1663a9059cbb60008054906101000a900473ffffffffffffffffffffffffffffffffffffffff16600160009054906101000a900473ffffffffffffffffffffffffffffffffffffffff1673ffffffffffffffffffffffffffffffffffffffff166370a08231306040518263ffffffff1660e01b81526004016103d2919061069b565b602060405180830381865afa1580156103ef573d6000803e3d6000fd5b505050506040513d601f19601f8201168201806040525081019061041391906106cb565b6040518363ffffffff1660e01b81526004016104309291906106f8565b6020604051808303816000875af115801561044f573d6000803e3d6000fd5b505050506040513d601f19601f820116820180604052508101906104739190610759565b61047c57600080fd5b60008054906101000a900473ffffffffffffffffffffffffffffffffffffffff1673ffffffffffffffffffffffffffffffffffffffff166108fc479081150290604051600060405180830381858888f193505050501580156104e2573d6000803e3d6000fd5b50565b60035481565b600160009054906101000a900473ffffffffffffffffffffffffffffffffffffffff1681565b60025481565b60008082148061053f575082828385610530919061080b565b92508261053d9190610894565b145b61054857600080fd5b92915050565b600080fd5b6000819050919050565b61056681610553565b811461057157600080fd5b50565b6000813590506105838161055d565b92915050565b60006020828403121561059f5761059e61054e565b5b60006105ad84828501610574565b91505092915050565b6105bf81610553565b82525050565b60006020820190506105da60008301846105b6565b92915050565b600073ffffffffffffffffffffffffffffffffffffffff82169050919050565b6000819050919050565b600061062561062061061b846105e0565b610600565b6105e0565b9050919050565b60006106378261060a565b9050919050565b60006106498261062c565b9050919050565b6106598161063e565b82525050565b60006020820190506106746000830184610650565b92915050565b6000610685826105e0565b9050919050565b6106958161067a565b82525050565b60006020820190506106b0600083018461068c565b92915050565b6000815190506106c58161055d565b92915050565b6000602082840312156106e1576106e061054e565b5b60006106ef848285016106b6565b91505092915050565b600060408201905061070d600083018561068c565b61071a60208301846105b6565b9392505050565b60008115159050919050565b61073681610721565b811461074157600080fd5b50565b6000815190506107538161072d565b92915050565b60006020828403121561076f5761076e61054e565b5b600061077d84828501610744565b91505092915050565b7f4e487b7100000000000000000000000000000000000000000000000000000000600052601160045260246000fd5b60006107c082610553565b91506107cb83610553565b9250827fffffffffffffffffffffffffffffffffffffffffffffffffffffffffffffffff03821115610800576107ff610786565b5b828201905092915050565b600061081682610553565b915061082183610553565b9250817fffffffffffffffffffffffffffffffffffffffffffffffffffffffffffffffff048311821515161561085a57610859610786565b5b828202905092915050565b7f4e487b7100000000000000000000000000000000000000000000000000000000600052601260045260246000fd5b600061089f82610553565b91506108aa83610553565b9250826108ba576108b9610865565b5b82820490509291505056fea26469706673582212200c162725794da6e56ec7df4013a0d833f85d1d313fc4f306dd68e7b525f2b61d64736f6c634300080a0033",
  "immutableReferences": {},
  "source": "// SPDX-License-Identifier: MIT\npragma solidity >=0.5.22 <0.9.0;\nimport './Kittutoken.sol';\n\ncontract KittuTokenSale {\n    \n    address  admin;\n    KittuToken public tokenContract;\n    uint256 public tokenPrice;\n    uint256 public tokensSold;\n\n    event Sell(address _buyer, uint256 _amount);\n\n\n    constructor(uint256 _tokenPrice, KittuToken _tokenContract){\n        //assign a admin\n        admin = msg.sender;\n\n        //token price \n        tokenPrice = _tokenPrice;\n\n        //token contract\n        tokenContract = _tokenContract;\n    }\n\n    function multiply(uint x, uint y) internal pure returns (uint z) {\n        require(y == 0 || (z = x * y) / y == x);\n    }\n\n    function buyTokens(uint256 _numberOfTokens) public payable {\n        //check wether the minimum number of ether is sent or not\n        require(msg.value == multiply(_numberOfTokens, tokenPrice));\n\n        //does our contract have that much number of token\n        require(tokenContract.balanceOf(address(this)) >= _numberOfTokens);\n\n        //token is transfer to the address\n        require(tokenContract.transfer(msg.sender, _numberOfTokens));\n\n        tokensSold += _numberOfTokens;\n\n        emit Sell(msg.sender, _numberOfTokens);\n    }\n\n    function endSale() public {\n\n        //only admin can do this\n        require(msg.sender == admin);\n\n        //we to send the remaning token to admin\n        require(tokenContract.transfer(admin, tokenContract.balanceOf(address(this))));\n\n        // Just transfer the balance to the admin\n        payable(admin).transfer(address(this).balance);\n    }\n\n\n\n\n}",
  "sourcePath": "/Users/ritiksrivastava/Documents/programming/Blockchain/Ethereumtoken/contracts/Kittutokensale.sol",
  "compiler": {
    "name": "solc",
    "version": "0.8.10+commit.fc410830.Emscripten.clang"
  },
  "schemaVersion": "3.4.3",
  "updatedAt": "2021-12-30T22:32:37.750Z",
  "networkType": "ethereum",
  "devdoc": {
    "kind": "dev",
    "methods": {},
    "version": 1
  },
  "userdoc": {
    "kind": "user",
    "methods": {},
    "version": 1
  }
}